{
  "_format": "hh-sol-artifact-1",
  "contractName": "marketPlace",
  "sourceName": "contracts/marketPlace.sol",
  "abi": [
    {
      "anonymous": false,
      "inputs": [
        {
          "indexed": false,
          "internalType": "uint256",
          "name": "itemId",
          "type": "uint256"
        },
        {
          "indexed": true,
          "internalType": "address",
          "name": "nft",
          "type": "address"
        },
        {
          "indexed": false,
          "internalType": "uint256",
          "name": "tokenId",
          "type": "uint256"
        },
        {
          "indexed": false,
          "internalType": "uint256",
          "name": "price",
          "type": "uint256"
        },
        {
          "indexed": true,
          "internalType": "address",
          "name": "seller",
          "type": "address"
        },
        {
          "indexed": true,
          "internalType": "address",
          "name": "buyer",
          "type": "address"
        }
      ],
      "name": "Bought",
      "type": "event"
    },
    {
      "anonymous": false,
      "inputs": [
        {
          "indexed": true,
          "internalType": "address",
          "name": "_eventOwner",
          "type": "address"
        },
        {
          "indexed": true,
          "internalType": "uint256",
          "name": "_eventID",
          "type": "uint256"
        },
        {
          "indexed": true,
          "internalType": "uint256",
          "name": "_eventTicketPrice",
          "type": "uint256"
        }
      ],
      "name": "EventCreated",
      "type": "event"
    },
    {
      "anonymous": false,
      "inputs": [
        {
          "indexed": false,
          "internalType": "uint256",
          "name": "itemId",
          "type": "uint256"
        },
        {
          "indexed": true,
          "internalType": "address",
          "name": "nft",
          "type": "address"
        },
        {
          "indexed": false,
          "internalType": "uint256",
          "name": "tokenId",
          "type": "uint256"
        },
        {
          "indexed": false,
          "internalType": "uint256",
          "name": "price",
          "type": "uint256"
        },
        {
          "indexed": true,
          "internalType": "address",
          "name": "seller",
          "type": "address"
        }
      ],
      "name": "NFTItemListed",
      "type": "event"
    },
    {
      "anonymous": false,
      "inputs": [
        {
          "indexed": true,
          "internalType": "address",
          "name": "previousOwner",
          "type": "address"
        },
        {
          "indexed": true,
          "internalType": "address",
          "name": "newOwner",
          "type": "address"
        }
      ],
      "name": "OwnershipTransferred",
      "type": "event"
    },
    {
      "anonymous": false,
      "inputs": [
        {
          "indexed": true,
          "internalType": "address",
          "name": "buyer",
          "type": "address"
        },
        {
          "indexed": true,
          "internalType": "uint256",
          "name": "_eventID",
          "type": "uint256"
        },
        {
          "indexed": true,
          "internalType": "uint256",
          "name": "_eventTicketPrice",
          "type": "uint256"
        }
      ],
      "name": "ticketMinted",
      "type": "event"
    },
    {
      "inputs": [
        {
          "internalType": "uint256",
          "name": "",
          "type": "uint256"
        }
      ],
      "name": "EventMapping",
      "outputs": [
        {
          "internalType": "address payable",
          "name": "creator",
          "type": "address"
        },
        {
          "internalType": "uint256",
          "name": "price",
          "type": "uint256"
        },
        {
          "internalType": "uint256",
          "name": "eventID",
          "type": "uint256"
        },
        {
          "internalType": "uint256",
          "name": "maxCap",
          "type": "uint256"
        },
        {
          "internalType": "uint256",
          "name": "startTime",
          "type": "uint256"
        },
        {
          "internalType": "bool",
          "name": "isActive",
          "type": "bool"
        }
      ],
      "stateMutability": "view",
      "type": "function"
    },
    {
      "inputs": [],
      "name": "NFTItemListFee",
      "outputs": [
        {
          "internalType": "uint256",
          "name": "",
          "type": "uint256"
        }
      ],
      "stateMutability": "view",
      "type": "function"
    },
    {
      "inputs": [],
      "name": "NFTTokenFee",
      "outputs": [
        {
          "internalType": "uint256",
          "name": "",
          "type": "uint256"
        }
      ],
      "stateMutability": "view",
      "type": "function"
    },
    {
      "inputs": [
        {
          "internalType": "uint256",
          "name": "",
          "type": "uint256"
        }
      ],
      "name": "_NFTItem",
      "outputs": [
        {
          "internalType": "uint256",
          "name": "itemId",
          "type": "uint256"
        },
        {
          "internalType": "contract IERC721",
          "name": "nft",
          "type": "address"
        },
        {
          "internalType": "uint256",
          "name": "tokenId",
          "type": "uint256"
        },
        {
          "internalType": "uint256",
          "name": "price",
          "type": "uint256"
        },
        {
          "internalType": "address payable",
          "name": "seller",
          "type": "address"
        },
        {
          "internalType": "address payable",
          "name": "owner",
          "type": "address"
        },
        {
          "internalType": "bool",
          "name": "sold",
          "type": "bool"
        }
      ],
      "stateMutability": "view",
      "type": "function"
    },
    {
      "inputs": [],
      "name": "_eventCounter",
      "outputs": [
        {
          "internalType": "uint256",
          "name": "_value",
          "type": "uint256"
        }
      ],
      "stateMutability": "view",
      "type": "function"
    },
    {
      "inputs": [],
      "name": "_itemTracker",
      "outputs": [
        {
          "internalType": "uint256",
          "name": "_value",
          "type": "uint256"
        }
      ],
      "stateMutability": "view",
      "type": "function"
    },
    {
      "inputs": [],
      "name": "_soldItems",
      "outputs": [
        {
          "internalType": "uint256",
          "name": "_value",
          "type": "uint256"
        }
      ],
      "stateMutability": "view",
      "type": "function"
    },
    {
      "inputs": [
        {
          "internalType": "uint256",
          "name": "_itemID",
          "type": "uint256"
        }
      ],
      "name": "buyNFTItem",
      "outputs": [
        {
          "internalType": "bool",
          "name": "",
          "type": "bool"
        }
      ],
      "stateMutability": "payable",
      "type": "function"
    },
    {
      "inputs": [
        {
          "internalType": "uint256",
          "name": "_eventID",
          "type": "uint256"
        },
        {
          "internalType": "uint256",
          "name": "_newPrice",
          "type": "uint256"
        }
      ],
      "name": "changeEventPrice",
      "outputs": [
        {
          "internalType": "bool",
          "name": "",
          "type": "bool"
        }
      ],
      "stateMutability": "nonpayable",
      "type": "function"
    },
    {
      "inputs": [
        {
          "internalType": "uint256",
          "name": "_eventTicketPrice",
          "type": "uint256"
        },
        {
          "internalType": "uint256",
          "name": "_eventMaxCap",
          "type": "uint256"
        },
        {
          "internalType": "uint256",
          "name": "_startTime",
          "type": "uint256"
        }
      ],
      "name": "createEvent",
      "outputs": [
        {
          "internalType": "bool",
          "name": "",
          "type": "bool"
        }
      ],
      "stateMutability": "payable",
      "type": "function"
    },
    {
      "inputs": [],
      "name": "createEventFee",
      "outputs": [
        {
          "internalType": "uint256",
          "name": "",
          "type": "uint256"
        }
      ],
      "stateMutability": "view",
      "type": "function"
    },
    {
      "inputs": [],
      "name": "eventCreateFee",
      "outputs": [
        {
          "internalType": "uint256",
          "name": "",
          "type": "uint256"
        }
      ],
      "stateMutability": "view",
      "type": "function"
    },
    {
      "inputs": [
        {
          "internalType": "uint256",
          "name": "_eventID",
          "type": "uint256"
        }
      ],
      "name": "eventWhiteList",
      "outputs": [
        {
          "internalType": "address[]",
          "name": "",
          "type": "address[]"
        }
      ],
      "stateMutability": "view",
      "type": "function"
    },
    {
      "inputs": [],
      "name": "getEventCounter",
      "outputs": [
        {
          "internalType": "uint256",
          "name": "",
          "type": "uint256"
        }
      ],
      "stateMutability": "view",
      "type": "function"
    },
    {
      "inputs": [
        {
          "internalType": "uint256",
          "name": "_eventID",
          "type": "uint256"
        }
      ],
      "name": "getEventCreator",
      "outputs": [
        {
          "internalType": "address",
          "name": "",
          "type": "address"
        }
      ],
      "stateMutability": "view",
      "type": "function"
    },
    {
      "inputs": [
        {
          "internalType": "uint256",
          "name": "_eventID",
          "type": "uint256"
        }
      ],
      "name": "getEventItem",
      "outputs": [
        {
          "internalType": "address",
          "name": "",
          "type": "address"
        },
        {
          "internalType": "uint256",
          "name": "",
          "type": "uint256"
        },
        {
          "internalType": "uint256",
          "name": "",
          "type": "uint256"
        },
        {
          "internalType": "address[]",
          "name": "",
          "type": "address[]"
        },
        {
          "internalType": "uint256",
          "name": "",
          "type": "uint256"
        }
      ],
      "stateMutability": "view",
      "type": "function"
    },
    {
      "inputs": [
        {
          "internalType": "uint256",
          "name": "_eventID",
          "type": "uint256"
        }
      ],
      "name": "getEventMaxCap",
      "outputs": [
        {
          "internalType": "uint256",
          "name": "",
          "type": "uint256"
        }
      ],
      "stateMutability": "view",
      "type": "function"
    },
    {
      "inputs": [
        {
          "internalType": "uint256",
          "name": "_eventID",
          "type": "uint256"
        }
      ],
      "name": "getEventTicketPrice",
      "outputs": [
        {
          "internalType": "uint256",
          "name": "",
          "type": "uint256"
        }
      ],
      "stateMutability": "view",
      "type": "function"
    },
    {
      "inputs": [
        {
          "internalType": "uint256",
          "name": "_eventID",
          "type": "uint256"
        }
      ],
      "name": "getEventUsers",
      "outputs": [
        {
          "internalType": "address[]",
          "name": "",
          "type": "address[]"
        }
      ],
      "stateMutability": "view",
      "type": "function"
    },
    {
      "inputs": [
        {
          "internalType": "uint256",
          "name": "_itemID",
          "type": "uint256"
        }
      ],
      "name": "getItemTotalPrice",
      "outputs": [
        {
          "internalType": "uint256",
          "name": "",
          "type": "uint256"
        }
      ],
      "stateMutability": "view",
      "type": "function"
    },
    {
      "inputs": [],
      "name": "getMarketBalance",
      "outputs": [
        {
          "internalType": "uint256",
          "name": "",
          "type": "uint256"
        }
      ],
      "stateMutability": "view",
      "type": "function"
    },
    {
      "inputs": [],
      "name": "getMarketItems",
      "outputs": [
        {
          "components": [
            {
              "internalType": "uint256",
              "name": "itemId",
              "type": "uint256"
            },
            {
              "internalType": "contract IERC721",
              "name": "nft",
              "type": "address"
            },
            {
              "internalType": "uint256",
              "name": "tokenId",
              "type": "uint256"
            },
            {
              "internalType": "uint256",
              "name": "price",
              "type": "uint256"
            },
            {
              "internalType": "address payable",
              "name": "seller",
              "type": "address"
            },
            {
              "internalType": "address payable",
              "name": "owner",
              "type": "address"
            },
            {
              "internalType": "bool",
              "name": "sold",
              "type": "bool"
            }
          ],
          "internalType": "struct marketPlace.NFTItem[]",
          "name": "",
          "type": "tuple[]"
        }
      ],
      "stateMutability": "view",
      "type": "function"
    },
    {
      "inputs": [],
      "name": "getMyEventsCreated",
      "outputs": [
        {
          "components": [
            {
              "internalType": "address payable",
              "name": "creator",
              "type": "address"
            },
            {
              "internalType": "uint256",
              "name": "price",
              "type": "uint256"
            },
            {
              "internalType": "uint256",
              "name": "eventID",
              "type": "uint256"
            },
            {
              "internalType": "address[]",
              "name": "users",
              "type": "address[]"
            },
            {
              "internalType": "uint256",
              "name": "maxCap",
              "type": "uint256"
            },
            {
              "internalType": "uint256",
              "name": "startTime",
              "type": "uint256"
            },
            {
              "internalType": "bool",
              "name": "isActive",
              "type": "bool"
            }
          ],
          "internalType": "struct marketPlace.Event[]",
          "name": "",
          "type": "tuple[]"
        }
      ],
      "stateMutability": "view",
      "type": "function"
    },
    {
      "inputs": [],
      "name": "getMyEventsJoined",
      "outputs": [
        {
          "components": [
            {
              "internalType": "address payable",
              "name": "creator",
              "type": "address"
            },
            {
              "internalType": "uint256",
              "name": "price",
              "type": "uint256"
            },
            {
              "internalType": "uint256",
              "name": "eventID",
              "type": "uint256"
            },
            {
              "internalType": "address[]",
              "name": "users",
              "type": "address[]"
            },
            {
              "internalType": "uint256",
              "name": "maxCap",
              "type": "uint256"
            },
            {
              "internalType": "uint256",
              "name": "startTime",
              "type": "uint256"
            },
            {
              "internalType": "bool",
              "name": "isActive",
              "type": "bool"
            }
          ],
          "internalType": "struct marketPlace.Event[]",
          "name": "",
          "type": "tuple[]"
        }
      ],
      "stateMutability": "view",
      "type": "function"
    },
    {
      "inputs": [],
      "name": "getMyNFTForSale",
      "outputs": [
        {
          "components": [
            {
              "internalType": "uint256",
              "name": "itemId",
              "type": "uint256"
            },
            {
              "internalType": "contract IERC721",
              "name": "nft",
              "type": "address"
            },
            {
              "internalType": "uint256",
              "name": "tokenId",
              "type": "uint256"
            },
            {
              "internalType": "uint256",
              "name": "price",
              "type": "uint256"
            },
            {
              "internalType": "address payable",
              "name": "seller",
              "type": "address"
            },
            {
              "internalType": "address payable",
              "name": "owner",
              "type": "address"
            },
            {
              "internalType": "bool",
              "name": "sold",
              "type": "bool"
            }
          ],
          "internalType": "struct marketPlace.NFTItem[]",
          "name": "",
          "type": "tuple[]"
        }
      ],
      "stateMutability": "view",
      "type": "function"
    },
    {
      "inputs": [],
      "name": "getMyNFTItems",
      "outputs": [
        {
          "components": [
            {
              "internalType": "uint256",
              "name": "itemId",
              "type": "uint256"
            },
            {
              "internalType": "contract IERC721",
              "name": "nft",
              "type": "address"
            },
            {
              "internalType": "uint256",
              "name": "tokenId",
              "type": "uint256"
            },
            {
              "internalType": "uint256",
              "name": "price",
              "type": "uint256"
            },
            {
              "internalType": "address payable",
              "name": "seller",
              "type": "address"
            },
            {
              "internalType": "address payable",
              "name": "owner",
              "type": "address"
            },
            {
              "internalType": "bool",
              "name": "sold",
              "type": "bool"
            }
          ],
          "internalType": "struct marketPlace.NFTItem[]",
          "name": "",
          "type": "tuple[]"
        }
      ],
      "stateMutability": "view",
      "type": "function"
    },
    {
      "inputs": [
        {
          "internalType": "uint256",
          "name": "_NFTItemCount",
          "type": "uint256"
        }
      ],
      "name": "getNFTItemFromMarket",
      "outputs": [
        {
          "internalType": "uint256",
          "name": "",
          "type": "uint256"
        },
        {
          "internalType": "address",
          "name": "",
          "type": "address"
        },
        {
          "internalType": "uint256",
          "name": "",
          "type": "uint256"
        },
        {
          "internalType": "uint256",
          "name": "",
          "type": "uint256"
        },
        {
          "internalType": "address",
          "name": "",
          "type": "address"
        },
        {
          "internalType": "address",
          "name": "",
          "type": "address"
        },
        {
          "internalType": "bool",
          "name": "",
          "type": "bool"
        }
      ],
      "stateMutability": "view",
      "type": "function"
    },
    {
      "inputs": [],
      "name": "getSoldCounter",
      "outputs": [
        {
          "internalType": "uint256",
          "name": "",
          "type": "uint256"
        }
      ],
      "stateMutability": "view",
      "type": "function"
    },
    {
      "inputs": [],
      "name": "getTotalItemsListed",
      "outputs": [
        {
          "internalType": "uint256",
          "name": "",
          "type": "uint256"
        }
      ],
      "stateMutability": "view",
      "type": "function"
    },
    {
      "inputs": [
        {
          "internalType": "contract IERC721",
          "name": "_nft",
          "type": "address"
        },
        {
          "internalType": "uint256",
          "name": "_tokenId",
          "type": "uint256"
        },
        {
          "internalType": "uint256",
          "name": "_price",
          "type": "uint256"
        }
      ],
      "name": "listNFTItem",
      "outputs": [
        {
          "internalType": "bool",
          "name": "",
          "type": "bool"
        }
      ],
      "stateMutability": "nonpayable",
      "type": "function"
    },
    {
      "inputs": [
        {
          "internalType": "uint256",
          "name": "_eventID",
          "type": "uint256"
        }
      ],
      "name": "mintTicket",
      "outputs": [
        {
          "internalType": "bool",
          "name": "",
          "type": "bool"
        }
      ],
      "stateMutability": "payable",
      "type": "function"
    },
    {
      "inputs": [],
      "name": "owner",
      "outputs": [
        {
          "internalType": "address",
          "name": "",
          "type": "address"
        }
      ],
      "stateMutability": "view",
      "type": "function"
    },
    {
      "inputs": [],
      "name": "renounceOwnership",
      "outputs": [],
      "stateMutability": "nonpayable",
      "type": "function"
    },
    {
      "inputs": [],
      "name": "sellEventTicketFee",
      "outputs": [
        {
          "internalType": "uint256",
          "name": "",
          "type": "uint256"
        }
      ],
      "stateMutability": "view",
      "type": "function"
    },
    {
      "inputs": [
        {
          "internalType": "address",
          "name": "_NFTContractInstance",
          "type": "address"
        }
      ],
      "name": "setNFTContractInstance",
      "outputs": [
        {
          "internalType": "bool",
          "name": "",
          "type": "bool"
        }
      ],
      "stateMutability": "nonpayable",
      "type": "function"
    },
    {
      "inputs": [
        {
          "internalType": "uint256",
          "name": "_eventID",
          "type": "uint256"
        }
      ],
      "name": "startEvent",
      "outputs": [
        {
          "internalType": "bool",
          "name": "",
          "type": "bool"
        }
      ],
      "stateMutability": "nonpayable",
      "type": "function"
    },
    {
      "inputs": [
        {
          "internalType": "address",
          "name": "newOwner",
          "type": "address"
        }
      ],
      "name": "transferOwnership",
      "outputs": [],
      "stateMutability": "nonpayable",
      "type": "function"
    },
    {
      "inputs": [
        {
          "internalType": "uint256",
          "name": "_eventID",
          "type": "uint256"
        }
      ],
      "name": "userIsJoined",
      "outputs": [
        {
          "internalType": "bool",
          "name": "",
          "type": "bool"
        }
      ],
      "stateMutability": "view",
      "type": "function"
    },
    {
      "inputs": [],
      "name": "withdrawContractBalance",
      "outputs": [
        {
          "internalType": "bool",
          "name": "",
          "type": "bool"
        }
      ],
      "stateMutability": "nonpayable",
      "type": "function"
    }
  ],
  "bytecode": "0x608060405234801561001057600080fd5b50600160005561001f33610024565b610076565b600180546001600160a01b038381166001600160a01b0319831681179093556040519116919082907f8be0079c531659141344cd1fd0a4f28419497f9722a3daafe3b4186f6b6457e090600090a35050565b61316580620000866000396000f3fe6080604052600436106101c05760003560e01c8063256d52f6146101c5578063285d3b44146101ed57806329aa3a421461021157806339bdf21d146102335780633c82a9781461024a57806345bf33f71461025f5780634d7d1b07146102755780635e39a24b1461028b57806362fe1447146102a15780636459d3b4146102c157806365ebbc94146102e15780636c7f0d4e146102f65780636f5ea5161461032e578063715018a61461035f578063814099831461037657806388230c701461039657806388c09e43146103b65780638cbc5ad6146103c95780638da5cb5b146103f9578063946079bd1461040e578063964eec701461043057806396ef1eb91461044357806397fcdac71461045a5780639a3db00714610508578063a450c4ef1461051d578063a59a69531461053d578063a97d15001461055d578063b2d2d46014610573578063bfab3db914610619578063c5916db31461062e578063c5ce54001461064e578063c94dd93c146106e4578063d55b3b3314610711578063d607664214610726578063e8203cdf1461073d578063ecdebef314610752578063f2fde38b14610772578063f6143d8514610792578063f9237c26146107a5575b600080fd5b6101d86101d3366004612cd7565b6107ba565b60405190151581526020015b60405180910390f35b3480156101f957600080fd5b5061020360065481565b6040519081526020016101e4565b34801561021d57600080fd5b50610226610af3565b6040516101e49190612f50565b34801561023f57600080fd5b506003546102039081565b34801561025657600080fd5b50610203610cac565b34801561026b57600080fd5b50610203600a5481565b34801561028157600080fd5b5061020360075481565b34801561029757600080fd5b5061020360055481565b3480156102ad57600080fd5b506101d86102bc366004612cd7565b610cbc565b3480156102cd57600080fd5b506102036102dc366004612cd7565b610df9565b3480156102ed57600080fd5b50610226610ec6565b34801561030257600080fd5b50610316610311366004612cd7565b6110bf565b6040516001600160a01b0390911681526020016101e4565b34801561033a57600080fd5b5061034e610349366004612cd7565b611187565b6040516101e4959493929190612e1d565b34801561036b57600080fd5b506103746112ac565b005b34801561038257600080fd5b506101d8610391366004612ca3565b6112e7565b3480156103a257600080fd5b506101d86103b1366004612c64565b6115bc565b6101d86103c4366004612cd7565b611612565b3480156103d557600080fd5b506102036103e4366004612cd7565b6000908152600c602052604090206003015490565b34801561040557600080fd5b506103166118c5565b34801561041a57600080fd5b506104236118d4565b6040516101e49190612e6f565b34801561043c57600080fd5b5047610203565b34801561044f57600080fd5b506004546102039081565b34801561046657600080fd5b506104c5610475366004612cd7565b600c6020526000908152604090208054600182015460028301546003840154600485015460059095015493946001600160a01b03938416949293919290821691811690600160a01b900460ff1687565b604080519788526001600160a01b03968716602089015287019490945260608601929092528316608085015290911660a0830152151560c082015260e0016101e4565b34801561051457600080fd5b50610423611c20565b34801561052957600080fd5b506101d8610538366004612d07565b611ebe565b34801561054957600080fd5b506101d8610558366004612cd7565b6120f5565b34801561056957600080fd5b5061020360095481565b34801561057f57600080fd5b506104c561058e366004612cd7565b6000908152600c6020908152604091829020825160e081018452815480825260018301546001600160a01b039081169483018590526002840154958301869052600384015460608401819052600485015482166080850181905260059095015491821660a08501819052600160a01b90920460ff16151560c090940184905291969495949193929091565b34801561062557600080fd5b506101d8612352565b34801561063a57600080fd5b50610203610649366004612cd7565b6123b7565b34801561065a57600080fd5b506106ab610669366004612cd7565b600b602052600090815260409020805460018201546002830154600484015460058501546006909501546001600160a01b039094169492939192909160ff1686565b604080516001600160a01b03909716875260208701959095529385019290925260608401526080830152151560a082015260c0016101e4565b3480156106f057600080fd5b506107046106ff366004612cd7565b612482565b6040516101e49190612e5c565b34801561071d57600080fd5b506102266124f1565b34801561073257600080fd5b506002546102039081565b34801561074957600080fd5b506102036126ea565b34801561075e57600080fd5b5061070461076d366004612cd7565b6126f5565b34801561077e57600080fd5b5061037461078d366004612c64565b6127bf565b6101d86107a0366004612d28565b61285f565b3480156107b157600080fd5b506102036129e8565b6000600260005414156107e85760405162461bcd60e51b81526004016107df90613045565b60405180910390fd5b6002600055600454808311156108105760405162461bcd60e51b81526004016107df90612fe4565b6000838152600b60209081526040808320815160e08101835281546001600160a01b031681526001820154818501526002820154818401526003820180548451818702810187019095528085529194929360608601939092908301828280156108a257602002820191906000526020600020905b81546001600160a01b03168152600190910190602001808311610884575b505050918352505060048201546020808301919091526005830154604083015260069092015460ff16151560609091015281015190915034146109335760405162461bcd60e51b8152602060048201526024808201527f4e6f7420656e6f756768206d6f6e657920746f20706179207469636b657420706044820152637269636560e01b60648201526084016107df565b80608001518160600151511061097f5760405162461bcd60e51b8152602060048201526011602482015270195d995b9d0818d85c081a5cc8199d5b1b607a1b60448201526064016107df565b6000600a82602001516109929190613094565b82602001516109a191906130a8565b82516040519192506001600160a01b03169082156108fc029083906000818181858888f193505050501580156109db573d6000803e3d6000fd5b5060006109e7866129f3565b6008546040516314e2210b60e21b815291925033916000916001600160a01b031690635388842c90610a1f9085908790600401612d96565b602060405180830381600087803b158015610a3957600080fd5b505af1158015610a4d573d6000803e3d6000fd5b505050506040513d601f19601f82011682018060405250810190610a719190612cef565b6000898152600b6020908152604080832060030180546001810182559084528284200180546001600160a01b0319166001600160a01b038816908117909155918901519051939450928b927fe3cd5a67c0dacf6ac6b96192096048d5359ad72a4ae2519f760a3f181871d3bb91a4600196505050505050506001600055919050565b60606000610b0060025490565b90506000610b0d60035490565b610b1790836130a8565b9050600080826001600160401b03811115610b4257634e487b7160e01b600052604160045260246000fd5b604051908082528060200260200182016040528015610b7b57816020015b610b68612b66565b815260200190600190039081610b605790505b50905060005b84811015610ca35730600c6000610b9984600161307c565b81526020810191909152604001600020600501546001600160a01b03161415610c91576000600c81610bcc84600161307c565b81526020808201929092526040908101600090812054808252600c845290829020825160e0810184528154815260018201546001600160a01b039081169582019590955260028201549381019390935260038101546060840152600481015484166080840152600581015493841660a0840152600160a01b90930460ff16151560c08301528551909350859087908110610c7657634e487b7160e01b600052603260045260246000fd5b6020908102919091010152610c8c60018661307c565b945050505b80610c9b816130bf565b915050610b81565b50949350505050565b6000610cb760045490565b905090565b6000818152600b60209081526040808320815160e08101835281546001600160a01b0316815260018201548185015260028201548184015260038201805484518187028101870190955280855286959294606086019390929190830182828015610d4f57602002820191906000526020600020905b81546001600160a01b03168152600190910190602001808311610d31575b5050509183525050600482015460208201526005820154604082015260069091015460ff161515606090910152905060005b816060015151811015610def57336001600160a01b031682606001518281518110610dbc57634e487b7160e01b600052603260045260246000fd5b60200260200101516001600160a01b03161415610ddd575060019392505050565b80610de7816130bf565b915050610d81565b5060009392505050565b6000818152600b60209081526040808320815160e08101835281546001600160a01b0316815260018201548185015260028201548184015260038201805484518187028101870190955280855286959294606086019390929190830182828015610e8c57602002820191906000526020600020905b81546001600160a01b03168152600190910190602001808311610e6e575b505050918352505060048201546020808301919091526005830154604083015260069092015460ff16151560609091015201519392505050565b60606000610ed360025490565b90506000805b82811015610f345733600c6000610ef184600161307c565b81526020810191909152604001600020600501546001600160a01b03161415610f2257610f1f60018361307c565b91505b80610f2c816130bf565b915050610ed9565b50600080826001600160401b03811115610f5e57634e487b7160e01b600052604160045260246000fd5b604051908082528060200260200182016040528015610f9757816020015b610f84612b66565b815260200190600190039081610f7c5790505b50905060005b84811015610ca35733600c6000610fb584600161307c565b81526020810191909152604001600020600501546001600160a01b031614156110ad576000600c81610fe884600161307c565b81526020808201929092526040908101600090812054808252600c845290829020825160e0810184528154815260018201546001600160a01b039081169582019590955260028201549381019390935260038101546060840152600481015484166080840152600581015493841660a0840152600160a01b90930460ff16151560c0830152855190935085908790811061109257634e487b7160e01b600052603260045260246000fd5b60209081029190910101526110a860018661307c565b945050505b806110b7816130bf565b915050610f9d565b6000818152600b60209081526040808320815160e08101835281546001600160a01b031681526001820154818501526002820154818401526003820180548451818702810187019095528085528695929460608601939092919083018282801561115257602002820191906000526020600020905b81546001600160a01b03168152600190910190602001808311611134575b5050509183525050600482015460208201526005820154604082015260069091015460ff161515606090910152519392505050565b6000806000606060008061119a60045490565b9050808711156111bc5760405162461bcd60e51b81526004016107df90612fe4565b6000878152600b60209081526040808320815160e08101835281546001600160a01b0316815260018201548185015260028201548184015260038201805484518187028101870190955280855291949293606086019390929083018282801561124e57602002820191906000526020600020905b81546001600160a01b03168152600190910190602001808311611230575b50505091835250506004820154602080830191909152600583015460408084019190915260069093015460ff1615156060928301528351908401519284015191840151608090940151909c929b509099509197509095509350505050565b336112b56118c5565b6001600160a01b0316146112db5760405162461bcd60e51b81526004016107df90613010565b6112e56000612b14565b565b60006002600054141561130c5760405162461bcd60e51b81526004016107df90613045565b60026000558161135e5760405162461bcd60e51b815260206004820152601f60248201527f5072696365206d7573742062652067726561746572207468616e207a65726f0060448201526064016107df565b6040516331a9108f60e11b81526004810184905233906001600160a01b03861690636352211e9060240160206040518083038186803b1580156113a057600080fd5b505afa1580156113b4573d6000803e3d6000fd5b505050506040513d601f19601f820116820180604052508101906113d89190612c87565b6001600160a01b03161461142e5760405162461bcd60e51b815260206004820152601d60248201527f596f7520617265206e6f74206f776e6572206f662074686973204e465400000060448201526064016107df565b61143c600280546001019055565b600061144760025490565b6040805160e0810182528281526001600160a01b0380891660208084018281528486018b8152606086018b815233608088018181523060a08a01818152600060c08c018181528e8252600c9099528c90209a518b55955160018b018054918b166001600160a01b0319928316179055945160028b0155925160038a0155516004808a018054928a16929095169190911790935592516005909701805494511515600160a01b026001600160a81b031990951697909616969096179290921790935593516323b872dd60e01b8152949550936323b872dd9361152b93918a9101612df9565b600060405180830381600087803b15801561154557600080fd5b505af1158015611559573d6000803e3d6000fd5b505060408051848152602081018890529081018690523392506001600160a01b03881691507f59e954e4303165baea111cf1298a1d5e19da391c46b35f02c063f41e85a9922e9060600160405180910390a3600191505060016000559392505050565b6000336115c76118c5565b6001600160a01b0316146115ed5760405162461bcd60e51b81526004016107df90613010565b50600880546001600160a01b0383166001600160a01b03199091161790556001919050565b6000600260005414156116375760405162461bcd60e51b81526004016107df90613045565b6002600081905554821580159061164e5750808311155b6116915760405162461bcd60e51b81526020600482015260146024820152734974656d206973206e6f74206578697374696e6760601b60448201526064016107df565b6000838152600c60205260409020600301543481146116ed5760405162461bcd60e51b8152602060048201526018602482015277206e6f7420656e6f756768206d6f6e657920746f2070617960401b60448201526064016107df565b6000848152600c602052604090206005810154600160a01b900460ff16156117505760405162461bcd60e51b81526020600482015260166024820152754974656d206973206e6f7420666f722073656c6c202160501b60448201526064016107df565b600061175d600a84613094565b61176790846130a8565b60048301546040519192506001600160a01b03169082156108fc029083906000818181858888f193505050501580156117a4573d6000803e3d6000fd5b506005820180546004840180546001600160a01b031916905560ff60a01b1933166001600160a81b031990911617600160a01b1790556117e8600380546001019055565b600182015460028301546040516323b872dd60e01b81526001600160a01b03909216916323b872dd916118219130913391600401612df9565b600060405180830381600087803b15801561183b57600080fd5b505af115801561184f573d6000803e3d6000fd5b50505050600482015460018301546002840154604080518a81526020810192909252810186905233926001600160a01b039081169216907f8b4c9c8a607d67b321582dd8461041b1dc2ceeca70c8b7f37f8e02095cf2e76d9060600160405180910390a460019450505050506001600055919050565b6001546001600160a01b031690565b606060006118e160045490565b9050600060015b828111611a3a576000818152600b60209081526040808320815160e08101835281546001600160a01b0316815260018201548185015260028201548184015260038201805484518187028101870190955280855291949293606086019390929083018282801561198157602002820191906000526020600020905b81546001600160a01b03168152600190910190602001808311611963575b5050509183525050600482015460208201526005820154604082015260069091015460ff161515606090910152905060005b816060015151811015611a2557336001600160a01b0316826060015182815181106119ee57634e487b7160e01b600052603260045260246000fd5b60200260200101516001600160a01b03161415611a1357611a1084600161307c565b93505b80611a1d816130bf565b9150506119b3565b50508080611a32906130bf565b9150506118e8565b50600080826001600160401b03811115611a6457634e487b7160e01b600052604160045260246000fd5b604051908082528060200260200182016040528015611a9d57816020015b611a8a612ba2565b815260200190600190039081611a825790505b50905060015b848111610ca3576000818152600b60209081526040808320815160e08101835281546001600160a01b03168152600182015481850152600282015481840152600382018054845181870281018701909552808552919492936060860193909290830182828015611b3c57602002820191906000526020600020905b81546001600160a01b03168152600190910190602001808311611b1e575b5050509183525050600482015460208201526005820154604082015260069091015460ff161515606090910152905060005b816060015151811015611c0d57336001600160a01b031682606001518281518110611ba957634e487b7160e01b600052603260045260246000fd5b60200260200101516001600160a01b03161415611bfb5781848681518110611be157634e487b7160e01b600052603260045260246000fd5b60200260200101819052508480611bf7906130bf565b9550505b80611c05816130bf565b915050611b6e565b505080611c19906130bf565b9050611aa3565b60606000611c2d60045490565b9050600060015b828111611d2e576000818152600b60209081526040808320815160e08101835281546001600160a01b03168152600182015481850152600282015481840152600382018054845181870281018701909552808552919492936060860193909290830182828015611ccd57602002820191906000526020600020905b81546001600160a01b03168152600190910190602001808311611caf575b5050509183525050600482015460208201526005820154604082015260069091015460ff16151560609091015280519091506001600160a01b0316331415611d1d57611d1a83600161307c565b92505b50611d27816130bf565b9050611c34565b50600080826001600160401b03811115611d5857634e487b7160e01b600052604160045260246000fd5b604051908082528060200260200182016040528015611d9157816020015b611d7e612ba2565b815260200190600190039081611d765790505b50905060015b848111610ca3576000818152600b60209081526040808320815160e08101835281546001600160a01b03168152600182015481850152600282015481840152600382018054845181870281018701909552808552919492936060860193909290830182828015611e3057602002820191906000526020600020905b81546001600160a01b03168152600190910190602001808311611e12575b5050509183525050600482015460208201526005820154604082015260069091015460ff16151560609091015280519091506001600160a01b0316331415611ead5780838581518110611e9357634e487b7160e01b600052603260045260246000fd5b60200260200101819052508380611ea9906130bf565b9450505b50611eb7816130bf565b9050611d97565b6000828152600b60209081526040808320815160e08101835281546001600160a01b0316815260018201548185015260028201548184015260038201805484518187028101870190955280855288958795939493606086019390929091830182828015611f5457602002820191906000526020600020905b81546001600160a01b03168152600190910190602001808311611f36575b5050509183525050600482015460208201526005820154604082015260069091015460ff16151560609091015280519091506001600160a01b03163314611f9a57600080fd5b6000858152600b60209081526040808320815160e08101835281546001600160a01b0316815260018201548185015260028201548184015260038201805484518187028101870190955280855291949293606086019390929083018282801561202c57602002820191906000526020600020905b81546001600160a01b0316815260019091019060200180831161200e575b50505091835250506004820154602080830191909152600583015460408084019190915260069093015460ff16151560609283015283810189815260008b8152600b8352849020855181546001600160a01b0319166001600160a01b039091161781559051600182015592840151600284015590830151805193945084936120ba9260038501920190612bea565b506080820151600482015560a0820151600582015560c0909101516006909101805460ff191691151591909117905550600195945050505050565b6000818152600b60209081526040808320815160e08101835281546001600160a01b031681526001820154818501526002820154818401526003820180548451818702810187019095528085528795879593949360608601939092909183018282801561218b57602002820191906000526020600020905b81546001600160a01b0316815260019091019060200180831161216d575b5050509183525050600482015460208201526005820154604082015260069091015460ff16151560609091015280519091506001600160a01b031633146121d157600080fd5b6000848152600b60209081526040808320815160e08101835281546001600160a01b0316815260018201548185015260028201548184015260038201805484518187028101870190955280855291949293606086019390929083018282801561226357602002820191906000526020600020905b81546001600160a01b03168152600190910190602001808311612245575b5050509183525050600482015460208201526005820154604082015260069091015460ff16151560609091015260a081015190915042108015906122a9575060c0810151155b6122b257600080fd5b600160c082018190526000868152600b6020908152604091829020845181546001600160a01b0319166001600160a01b03909116178155818501519381019390935590830151600283015560608301518051849392612318926003850192910190612bea565b506080820151600482015560a0820151600582015560c0909101516006909101805460ff1916911515919091179055506001949350505050565b60003361235d6118c5565b6001600160a01b0316146123835760405162461bcd60e51b81526004016107df90613010565b60405133904780156108fc02916000818181858888f193505050501580156123af573d6000803e3d6000fd5b506001905090565b6000818152600b60209081526040808320815160e08101835281546001600160a01b031681526001820154818501526002820154818401526003820180548451818702810187019095528085528695929460608601939092919083018282801561244a57602002820191906000526020600020905b81546001600160a01b0316815260019091019060200180831161242c575b5050509183525050600482015460208201526005820154604082015260069091015460ff161515606090910152608001519392505050565b6000818152600b60209081526040918290206003018054835181840281018401909452808452606093928301828280156124e557602002820191906000526020600020905b81546001600160a01b031681526001909101906020018083116124c7575b50505050509050919050565b606060006124fe60025490565b90506000805b8281101561255f5733600c600061251c84600161307c565b81526020810191909152604001600020600401546001600160a01b0316141561254d5761254a60018361307c565b91505b80612557816130bf565b915050612504565b50600080826001600160401b0381111561258957634e487b7160e01b600052604160045260246000fd5b6040519080825280602002602001820160405280156125c257816020015b6125af612b66565b8152602001906001900390816125a75790505b50905060005b84811015610ca35733600c60006125e084600161307c565b81526020810191909152604001600020600401546001600160a01b031614156126d8576000600c8161261384600161307c565b81526020808201929092526040908101600090812054808252600c845290829020825160e0810184528154815260018201546001600160a01b039081169582019590955260028201549381019390935260038101546060840152600481015484166080840152600581015493841660a0840152600160a01b90930460ff16151560c083015285519093508590879081106126bd57634e487b7160e01b600052603260045260246000fd5b60209081029190910101526126d360018661307c565b945050505b806126e2816130bf565b9150506125c8565b6000610cb760025490565b6000818152600b60209081526040808320815160e08101835281546001600160a01b03168152600182015481850152600282015481840152600382018054845181870281018701909552808552606096959294858801939092919083018282801561278957602002820191906000526020600020905b81546001600160a01b0316815260019091019060200180831161276b575b5050509183525050600482015460208201526005820154604082015260069091015460ff16151560609182015201519392505050565b336127c86118c5565b6001600160a01b0316146127ee5760405162461bcd60e51b81526004016107df90613010565b6001600160a01b0381166128535760405162461bcd60e51b815260206004820152602660248201527f4f776e61626c653a206e6577206f776e657220697320746865207a65726f206160448201526564647265737360d01b60648201526084016107df565b61285c81612b14565b50565b6000600260005414156128845760405162461bcd60e51b81526004016107df90613045565b6002600055612894600a85613094565b34146128e25760405162461bcd60e51b815260206004820181905260248201527f796f75206e65656420746f2070617920666f7220637265617465206576656e7460448201526064016107df565b6128f0600480546001019055565b60006128fb60045490565b9050612905612ba2565b338152604080820183815260208084018981526080850189905260a085018890526000868152600b835293909320845181546001600160a01b0319166001600160a01b03909116178155925160018401559051600283015560608301518051849392612978926003850192910190612bea565b506080820151600482015560a0820151600582015560c0909101516006909101805460ff19169115159190911790556040518690839033907ff433070ea0a4e07856f84c2b7e175e607d98277cea24bb9ff4bf8d6046a452a190600090a460019250505060016000559392505050565b6000610cb760035490565b606081612a175750506040805180820190915260018152600360fc1b602082015290565b8160005b8115612a415780612a2b816130bf565b9150612a3a9050600a83613094565b9150612a1b565b6000816001600160401b03811115612a6957634e487b7160e01b600052604160045260246000fd5b6040519080825280601f01601f191660200182016040528015612a93576020820181803683370190505b5090505b8415612b0c57612aa86001836130a8565b9150612ab5600a866130da565b612ac090603061307c565b60f81b818381518110612ae357634e487b7160e01b600052603260045260246000fd5b60200101906001600160f81b031916908160001a905350612b05600a86613094565b9450612a97565b949350505050565b600180546001600160a01b038381166001600160a01b0319831681179093556040519116919082907f8be0079c531659141344cd1fd0a4f28419497f9722a3daafe3b4186f6b6457e090600090a35050565b6040805160e081018252600080825260208201819052918101829052606081018290526080810182905260a0810182905260c081019190915290565b6040518060e0016040528060006001600160a01b0316815260200160008152602001600081526020016060815260200160008152602001600081526020016000151581525090565b828054828255906000526020600020908101928215612c3f579160200282015b82811115612c3f57825182546001600160a01b0319166001600160a01b03909116178255602090920191600190910190612c0a565b50612c4b929150612c4f565b5090565b5b80821115612c4b5760008155600101612c50565b600060208284031215612c75578081fd5b8135612c808161311a565b9392505050565b600060208284031215612c98578081fd5b8151612c808161311a565b600080600060608486031215612cb7578182fd5b8335612cc28161311a565b95602085013595506040909401359392505050565b600060208284031215612ce8578081fd5b5035919050565b600060208284031215612d00578081fd5b5051919050565b60008060408385031215612d19578182fd5b50508035926020909101359150565b600080600060608486031215612d3c578283fd5b505081359360208301359350604090920135919050565b6000815180845260208085019450808401835b83811015612d8b5781516001600160a01b031687529582019590820190600101612d66565b509495945050505050565b60018060a01b0383168152600060206040818401528351806040850152825b81811015612dd157858101830151858201606001528201612db5565b81811115612de25783606083870101525b50601f01601f191692909201606001949350505050565b6001600160a01b039384168152919092166020820152604081019190915260600190565b60018060a01b038616815284602082015283604082015260a060608201526000612e4a60a0830185612d53565b90508260808301529695505050505050565b602081526000612c806020830184612d53565b60006020808301818452808551808352604092508286019150828160051b870101848801865b83811015612f4257888303603f19018552815180516001600160a01b031684528781015188850152868101518785015260608082015160e09186018290528051918601829052610100860191908a01908b5b81811015612f0e5782516001600160a01b03168452602084019350918b0191600101612ee7565b5050506080828101519086015260a0808301519086015260c091820151151591909401529386019390860190600101612e95565b509098975050505050505050565b602080825282518282018190526000919060409081850190868401855b82811015612fd757815180518552868101516001600160a01b039081168887015286820151878701526060808301519087015260808083015182169087015260a0808301519091169086015260c09081015115159085015260e09093019290850190600101612f6d565b5091979650505050505050565b602080825260129082015271115d995b9d081a5cc81b9bdd08195e1a5cdd60721b604082015260600190565b6020808252818101527f4f776e61626c653a2063616c6c6572206973206e6f7420746865206f776e6572604082015260600190565b6020808252601f908201527f5265656e7472616e637947756172643a207265656e7472616e742063616c6c00604082015260600190565b6000821982111561308f5761308f6130ee565b500190565b6000826130a3576130a3613104565b500490565b6000828210156130ba576130ba6130ee565b500390565b60006000198214156130d3576130d36130ee565b5060010190565b6000826130e9576130e9613104565b500690565b634e487b7160e01b600052601160045260246000fd5b634e487b7160e01b600052601260045260246000fd5b6001600160a01b038116811461285c57600080fdfea26469706673582212205286390100e00fe3ff07e5ed633579bb06226a6ac9890931bbbf3bbeaf7583ba64736f6c63430008040033",
  "linkReferences": {},
  "deployedLinkReferences": {}
}