{
  "_format": "hh-sol-artifact-1",
  "contractName": "NFTContract",
  "sourceName": "contracts/NFTContract.sol",
  "abi": [
    {
      "inputs": [],
      "stateMutability": "nonpayable",
      "type": "constructor"
    },
    {
      "anonymous": false,
      "inputs": [
        {
          "indexed": true,
          "internalType": "address",
          "name": "owner",
          "type": "address"
        },
        {
          "indexed": true,
          "internalType": "address",
          "name": "approved",
          "type": "address"
        },
        {
          "indexed": true,
          "internalType": "uint256",
          "name": "tokenId",
          "type": "uint256"
        }
      ],
      "name": "Approval",
      "type": "event"
    },
    {
      "anonymous": false,
      "inputs": [
        {
          "indexed": true,
          "internalType": "address",
          "name": "owner",
          "type": "address"
        },
        {
          "indexed": true,
          "internalType": "address",
          "name": "operator",
          "type": "address"
        },
        {
          "indexed": false,
          "internalType": "bool",
          "name": "approved",
          "type": "bool"
        }
      ],
      "name": "ApprovalForAll",
      "type": "event"
    },
    {
      "anonymous": false,
      "inputs": [
        {
          "indexed": true,
          "internalType": "address",
          "name": "previousOwner",
          "type": "address"
        },
        {
          "indexed": true,
          "internalType": "address",
          "name": "newOwner",
          "type": "address"
        }
      ],
      "name": "OwnershipTransferred",
      "type": "event"
    },
    {
      "anonymous": false,
      "inputs": [
        {
          "indexed": true,
          "internalType": "address",
          "name": "from",
          "type": "address"
        },
        {
          "indexed": true,
          "internalType": "address",
          "name": "to",
          "type": "address"
        },
        {
          "indexed": true,
          "internalType": "uint256",
          "name": "tokenId",
          "type": "uint256"
        }
      ],
      "name": "Transfer",
      "type": "event"
    },
    {
      "inputs": [
        {
          "internalType": "uint256",
          "name": "",
          "type": "uint256"
        }
      ],
      "name": "NFTIDToURI",
      "outputs": [
        {
          "internalType": "string",
          "name": "",
          "type": "string"
        }
      ],
      "stateMutability": "view",
      "type": "function"
    },
    {
      "inputs": [],
      "name": "NFTItemTracker",
      "outputs": [
        {
          "internalType": "uint256",
          "name": "_value",
          "type": "uint256"
        }
      ],
      "stateMutability": "view",
      "type": "function"
    },
    {
      "inputs": [
        {
          "internalType": "address",
          "name": "to",
          "type": "address"
        },
        {
          "internalType": "uint256",
          "name": "tokenId",
          "type": "uint256"
        }
      ],
      "name": "approve",
      "outputs": [],
      "stateMutability": "nonpayable",
      "type": "function"
    },
    {
      "inputs": [
        {
          "internalType": "address",
          "name": "owner",
          "type": "address"
        }
      ],
      "name": "balanceOf",
      "outputs": [
        {
          "internalType": "uint256",
          "name": "",
          "type": "uint256"
        }
      ],
      "stateMutability": "view",
      "type": "function"
    },
    {
      "inputs": [
        {
          "internalType": "uint256",
          "name": "tokenId",
          "type": "uint256"
        }
      ],
      "name": "getApproved",
      "outputs": [
        {
          "internalType": "address",
          "name": "",
          "type": "address"
        }
      ],
      "stateMutability": "view",
      "type": "function"
    },
    {
      "inputs": [
        {
          "internalType": "address",
          "name": "owner",
          "type": "address"
        },
        {
          "internalType": "address",
          "name": "operator",
          "type": "address"
        }
      ],
      "name": "isApprovedForAll",
      "outputs": [
        {
          "internalType": "bool",
          "name": "",
          "type": "bool"
        }
      ],
      "stateMutability": "view",
      "type": "function"
    },
    {
      "inputs": [
        {
          "internalType": "address",
          "name": "_userAddress",
          "type": "address"
        },
        {
          "internalType": "string",
          "name": "_URIStorage",
          "type": "string"
        }
      ],
      "name": "mintTicket",
      "outputs": [
        {
          "internalType": "uint256",
          "name": "",
          "type": "uint256"
        }
      ],
      "stateMutability": "nonpayable",
      "type": "function"
    },
    {
      "inputs": [
        {
          "internalType": "string",
          "name": "_URIStorage",
          "type": "string"
        }
      ],
      "name": "mintToken",
      "outputs": [
        {
          "internalType": "uint256",
          "name": "",
          "type": "uint256"
        }
      ],
      "stateMutability": "nonpayable",
      "type": "function"
    },
    {
      "inputs": [],
      "name": "name",
      "outputs": [
        {
          "internalType": "string",
          "name": "",
          "type": "string"
        }
      ],
      "stateMutability": "view",
      "type": "function"
    },
    {
      "inputs": [],
      "name": "owner",
      "outputs": [
        {
          "internalType": "address",
          "name": "",
          "type": "address"
        }
      ],
      "stateMutability": "view",
      "type": "function"
    },
    {
      "inputs": [
        {
          "internalType": "uint256",
          "name": "tokenId",
          "type": "uint256"
        }
      ],
      "name": "ownerOf",
      "outputs": [
        {
          "internalType": "address",
          "name": "",
          "type": "address"
        }
      ],
      "stateMutability": "view",
      "type": "function"
    },
    {
      "inputs": [],
      "name": "renounceOwnership",
      "outputs": [],
      "stateMutability": "nonpayable",
      "type": "function"
    },
    {
      "inputs": [
        {
          "internalType": "address",
          "name": "from",
          "type": "address"
        },
        {
          "internalType": "address",
          "name": "to",
          "type": "address"
        },
        {
          "internalType": "uint256",
          "name": "tokenId",
          "type": "uint256"
        }
      ],
      "name": "safeTransferFrom",
      "outputs": [],
      "stateMutability": "nonpayable",
      "type": "function"
    },
    {
      "inputs": [
        {
          "internalType": "address",
          "name": "from",
          "type": "address"
        },
        {
          "internalType": "address",
          "name": "to",
          "type": "address"
        },
        {
          "internalType": "uint256",
          "name": "tokenId",
          "type": "uint256"
        },
        {
          "internalType": "bytes",
          "name": "_data",
          "type": "bytes"
        }
      ],
      "name": "safeTransferFrom",
      "outputs": [],
      "stateMutability": "nonpayable",
      "type": "function"
    },
    {
      "inputs": [
        {
          "internalType": "address",
          "name": "operator",
          "type": "address"
        },
        {
          "internalType": "bool",
          "name": "approved",
          "type": "bool"
        }
      ],
      "name": "setApprovalForAll",
      "outputs": [],
      "stateMutability": "nonpayable",
      "type": "function"
    },
    {
      "inputs": [
        {
          "internalType": "address",
          "name": "_marketPlaceAddress",
          "type": "address"
        }
      ],
      "name": "setMarketPlace",
      "outputs": [],
      "stateMutability": "nonpayable",
      "type": "function"
    },
    {
      "inputs": [
        {
          "internalType": "bytes4",
          "name": "interfaceId",
          "type": "bytes4"
        }
      ],
      "name": "supportsInterface",
      "outputs": [
        {
          "internalType": "bool",
          "name": "",
          "type": "bool"
        }
      ],
      "stateMutability": "view",
      "type": "function"
    },
    {
      "inputs": [],
      "name": "symbol",
      "outputs": [
        {
          "internalType": "string",
          "name": "",
          "type": "string"
        }
      ],
      "stateMutability": "view",
      "type": "function"
    },
    {
      "inputs": [
        {
          "internalType": "uint256",
          "name": "tokenId",
          "type": "uint256"
        }
      ],
      "name": "tokenURI",
      "outputs": [
        {
          "internalType": "string",
          "name": "",
          "type": "string"
        }
      ],
      "stateMutability": "view",
      "type": "function"
    },
    {
      "inputs": [
        {
          "internalType": "address",
          "name": "from",
          "type": "address"
        },
        {
          "internalType": "address",
          "name": "to",
          "type": "address"
        },
        {
          "internalType": "uint256",
          "name": "tokenId",
          "type": "uint256"
        }
      ],
      "name": "transferFrom",
      "outputs": [],
      "stateMutability": "nonpayable",
      "type": "function"
    },
    {
      "inputs": [
        {
          "internalType": "address",
          "name": "newOwner",
          "type": "address"
        }
      ],
      "name": "transferOwnership",
      "outputs": [],
      "stateMutability": "nonpayable",
      "type": "function"
    }
  ],
  "bytecode": "0x60806040523480156200001157600080fd5b506040805180820182526004808252630444150560e41b6020808401828152855180870190965292855284015281519192916200005191600091620000e0565b50805162000067906001906020840190620000e0565b505050620000846200007e6200008a60201b60201c565b6200008e565b620001c3565b3390565b600780546001600160a01b038381166001600160a01b0319831681179093556040519116919082907f8be0079c531659141344cd1fd0a4f28419497f9722a3daafe3b4186f6b6457e090600090a35050565b828054620000ee9062000186565b90600052602060002090601f0160209004810192826200011257600085556200015d565b82601f106200012d57805160ff19168380011785556200015d565b828001600101855582156200015d579182015b828111156200015d57825182559160200191906001019062000140565b506200016b9291506200016f565b5090565b5b808211156200016b576000815560010162000170565b600181811c908216806200019b57607f821691505b60208210811415620001bd57634e487b7160e01b600052602260045260246000fd5b50919050565b611a2480620001d36000396000f3fe608060405234801561001057600080fd5b50600436106101075760003560e01c806301ffc9a71461010c57806306fdde0314610134578063081812fc14610149578063095ea7b3146101745780631f0839961461018957806323b872dd1461019c57806330568a8d146101af57806333eba49a146101c257806342842e0e146101e35780635388842c146101f65780636352211e1461020957806370a082311461021c578063715018a61461022f5780638da5cb5b1461023757806395d89b411461023f578063a22cb46514610247578063b082794b1461025a578063b88d4fde14610264578063c87b56dd14610277578063e985e9c51461028a578063f2fde38b1461029d575b600080fd5b61011f61011a366004611698565b6102b0565b60405190151581526020015b60405180910390f35b61013c610302565b60405161012b91906117b2565b61015c610157366004611702565b610394565b6040516001600160a01b03909116815260200161012b565b61018761018236600461166f565b610421565b005b61013c610197366004611702565b610532565b6101876101aa366004611537565b6105cc565b6101876101bd3660046114eb565b6105fd565b6101d56101d03660046116d0565b61064e565b60405190815260200161012b565b6101876101f1366004611537565b610696565b6101d5610204366004611624565b6106b1565b61015c610217366004611702565b6106e9565b6101d561022a3660046114eb565b610760565b6101876107e7565b61015c610822565b61013c610831565b6101876102553660046115ea565b610840565b6008546101d59081565b610187610272366004611572565b61084f565b61013c610285366004611702565b610887565b61011f610298366004611505565b6109fe565b6101876102ab3660046114eb565b610a2c565b60006001600160e01b031982166380ac58cd60e01b14806102e157506001600160e01b03198216635b5e139f60e01b145b806102fc57506301ffc9a760e01b6001600160e01b03198316145b92915050565b6060600080546103119061190c565b80601f016020809104026020016040519081016040528092919081815260200182805461033d9061190c565b801561038a5780601f1061035f5761010080835404028352916020019161038a565b820191906000526020600020905b81548152906001019060200180831161036d57829003601f168201915b5050505050905090565b600061039f82610acc565b6104055760405162461bcd60e51b815260206004820152602c60248201527f4552433732313a20617070726f76656420717565727920666f72206e6f6e657860448201526b34b9ba32b73a103a37b5b2b760a11b60648201526084015b60405180910390fd5b506000908152600460205260409020546001600160a01b031690565b600061042c826106e9565b9050806001600160a01b0316836001600160a01b0316141561049a5760405162461bcd60e51b815260206004820152602160248201527f4552433732313a20617070726f76616c20746f2063757272656e74206f776e656044820152603960f91b60648201526084016103fc565b336001600160a01b03821614806104b657506104b681336109fe565b6105235760405162461bcd60e51b815260206004820152603860248201527f4552433732313a20617070726f76652063616c6c6572206973206e6f74206f776044820152771b995c881b9bdc88185c1c1c9bdd995908199bdc88185b1b60421b60648201526084016103fc565b61052d8383610ae9565b505050565b6009602052600090815260409020805461054b9061190c565b80601f01602080910402602001604051908101604052809291908181526020018280546105779061190c565b80156105c45780601f10610599576101008083540402835291602001916105c4565b820191906000526020600020905b8154815290600101906020018083116105a757829003601f168201915b505050505081565b6105d63382610b57565b6105f25760405162461bcd60e51b81526004016103fc9061184c565b61052d838383610c20565b33610606610822565b6001600160a01b03161461062c5760405162461bcd60e51b81526004016103fc90611817565b600a80546001600160a01b0319166001600160a01b0392909216919091179055565b600061065e600880546001019055565b600061066960085490565b90506106753382610daa565b61067f8184610eca565b600a546102fc906001600160a01b03166001610840565b61052d8383836040518060200160405280600081525061084f565b60006106c1600880546001019055565b60006106cc60085490565b90506106d88482610daa565b6106e28184610eca565b9392505050565b6000818152600260205260408120546001600160a01b0316806102fc5760405162461bcd60e51b815260206004820152602960248201527f4552433732313a206f776e657220717565727920666f72206e6f6e657869737460448201526832b73a103a37b5b2b760b91b60648201526084016103fc565b60006001600160a01b0382166107cb5760405162461bcd60e51b815260206004820152602a60248201527f4552433732313a2062616c616e636520717565727920666f7220746865207a65604482015269726f206164647265737360b01b60648201526084016103fc565b506001600160a01b031660009081526003602052604090205490565b336107f0610822565b6001600160a01b0316146108165760405162461bcd60e51b81526004016103fc90611817565b6108206000610f55565b565b6007546001600160a01b031690565b6060600180546103119061190c565b61084b338383610fa7565b5050565b6108593383610b57565b6108755760405162461bcd60e51b81526004016103fc9061184c565b61088184848484611072565b50505050565b606061089282610acc565b6108f85760405162461bcd60e51b815260206004820152603160248201527f45524337323155524953746f726167653a2055524920717565727920666f72206044820152703737b732bc34b9ba32b73a103a37b5b2b760791b60648201526084016103fc565b600082815260066020526040812080546109119061190c565b80601f016020809104026020016040519081016040528092919081815260200182805461093d9061190c565b801561098a5780601f1061095f5761010080835404028352916020019161098a565b820191906000526020600020905b81548152906001019060200180831161096d57829003601f168201915b5050505050905060006109a860408051602081019091526000815290565b90508051600014156109bb575092915050565b8151156109ed5780826040516020016109d5929190611746565b60405160208183030381529060405292505050919050565b6109f6846110a5565b949350505050565b6001600160a01b03918216600090815260056020908152604080832093909416825291909152205460ff1690565b33610a35610822565b6001600160a01b031614610a5b5760405162461bcd60e51b81526004016103fc90611817565b6001600160a01b038116610ac05760405162461bcd60e51b815260206004820152602660248201527f4f776e61626c653a206e6577206f776e657220697320746865207a65726f206160448201526564647265737360d01b60648201526084016103fc565b610ac981610f55565b50565b6000908152600260205260409020546001600160a01b0316151590565b600081815260046020526040902080546001600160a01b0319166001600160a01b0384169081179091558190610b1e826106e9565b6001600160a01b03167f8c5be1e5ebec7d5bd14f71427d1e84f3dd0314c0f7b2291e5b200ac8c7c3b92560405160405180910390a45050565b6000610b6282610acc565b610bc35760405162461bcd60e51b815260206004820152602c60248201527f4552433732313a206f70657261746f7220717565727920666f72206e6f6e657860448201526b34b9ba32b73a103a37b5b2b760a11b60648201526084016103fc565b6000610bce836106e9565b9050806001600160a01b0316846001600160a01b03161480610bf55750610bf581856109fe565b806109f65750836001600160a01b0316610c0e84610394565b6001600160a01b031614949350505050565b826001600160a01b0316610c33826106e9565b6001600160a01b031614610c975760405162461bcd60e51b815260206004820152602560248201527f4552433732313a207472616e736665722066726f6d20696e636f72726563742060448201526437bbb732b960d91b60648201526084016103fc565b6001600160a01b038216610cf95760405162461bcd60e51b8152602060048201526024808201527f4552433732313a207472616e7366657220746f20746865207a65726f206164646044820152637265737360e01b60648201526084016103fc565b610d04600082610ae9565b6001600160a01b0383166000908152600360205260408120805460019290610d2d9084906118c9565b90915550506001600160a01b0382166000908152600360205260408120805460019290610d5b90849061189d565b909155505060008181526002602052604080822080546001600160a01b0319166001600160a01b0386811691821790925591518493918716916000805160206119cf83398151915291a4505050565b6001600160a01b038216610e005760405162461bcd60e51b815260206004820181905260248201527f4552433732313a206d696e7420746f20746865207a65726f206164647265737360448201526064016103fc565b610e0981610acc565b15610e555760405162461bcd60e51b815260206004820152601c60248201527b115490cdcc8c4e881d1bdad95b88185b1c9958591e481b5a5b9d195960221b60448201526064016103fc565b6001600160a01b0382166000908152600360205260408120805460019290610e7e90849061189d565b909155505060008181526002602052604080822080546001600160a01b0319166001600160a01b03861690811790915590518392906000805160206119cf833981519152908290a45050565b610ed382610acc565b610f365760405162461bcd60e51b815260206004820152602e60248201527f45524337323155524953746f726167653a2055524920736574206f66206e6f6e60448201526d32bc34b9ba32b73a103a37b5b2b760911b60648201526084016103fc565b6000828152600660209081526040909120825161052d928401906113a2565b600780546001600160a01b038381166001600160a01b0319831681179093556040519116919082907f8be0079c531659141344cd1fd0a4f28419497f9722a3daafe3b4186f6b6457e090600090a35050565b816001600160a01b0316836001600160a01b031614156110055760405162461bcd60e51b815260206004820152601960248201527822a9219b99189d1030b8383937bb32903a379031b0b63632b960391b60448201526064016103fc565b6001600160a01b03838116600081815260056020908152604080832094871680845294825291829020805460ff191686151590811790915591519182527f17307eab39ab6107e8899845ad3d59bd9653f200f220920489ca2b5937696c31910160405180910390a3505050565b61107d848484610c20565b6110898484848461117c565b6108815760405162461bcd60e51b81526004016103fc906117c5565b60606110b082610acc565b6111145760405162461bcd60e51b815260206004820152602f60248201527f4552433732314d657461646174613a2055524920717565727920666f72206e6f60448201526e3732bc34b9ba32b73a103a37b5b2b760891b60648201526084016103fc565b600061112b60408051602081019091526000815290565b9050600081511161114b57604051806020016040528060008152506106e2565b8061115584611289565b604051602001611166929190611746565b6040516020818303038152906040529392505050565b60006001600160a01b0384163b1561127e57604051630a85bd0160e11b81526001600160a01b0385169063150b7a02906111c0903390899088908890600401611775565b602060405180830381600087803b1580156111da57600080fd5b505af192505050801561120a575060408051601f3d908101601f19168201909252611207918101906116b4565b60015b611264573d808015611238576040519150601f19603f3d011682016040523d82523d6000602084013e61123d565b606091505b50805161125c5760405162461bcd60e51b81526004016103fc906117c5565b805181602001fd5b6001600160e01b031916630a85bd0160e11b1490506109f6565b506001949350505050565b6060816112ad5750506040805180820190915260018152600360fc1b602082015290565b8160005b81156112d757806112c181611947565b91506112d09050600a836118b5565b91506112b1565b6000816001600160401b038111156112ff57634e487b7160e01b600052604160045260246000fd5b6040519080825280601f01601f191660200182016040528015611329576020820181803683370190505b5090505b84156109f65761133e6001836118c9565b915061134b600a86611962565b61135690603061189d565b60f81b81838151811061137957634e487b7160e01b600052603260045260246000fd5b60200101906001600160f81b031916908160001a90535061139b600a866118b5565b945061132d565b8280546113ae9061190c565b90600052602060002090601f0160209004810192826113d05760008555611416565b82601f106113e957805160ff1916838001178555611416565b82800160010185558215611416579182015b828111156114165782518255916020019190600101906113fb565b50611422929150611426565b5090565b5b808211156114225760008155600101611427565b60006001600160401b0380841115611455576114556119a2565b604051601f8501601f19908116603f0116810190828211818310171561147d5761147d6119a2565b8160405280935085815286868601111561149657600080fd5b858560208301376000602087830101525050509392505050565b80356001600160a01b03811681146114c757600080fd5b919050565b600082601f8301126114dc578081fd5b6106e28383356020850161143b565b6000602082840312156114fc578081fd5b6106e2826114b0565b60008060408385031215611517578081fd5b611520836114b0565b915061152e602084016114b0565b90509250929050565b60008060006060848603121561154b578081fd5b611554846114b0565b9250611562602085016114b0565b9150604084013590509250925092565b60008060008060808587031215611587578081fd5b611590856114b0565b935061159e602086016114b0565b92506040850135915060608501356001600160401b038111156115bf578182fd5b8501601f810187136115cf578182fd5b6115de8782356020840161143b565b91505092959194509250565b600080604083850312156115fc578182fd5b611605836114b0565b915060208301358015158114611619578182fd5b809150509250929050565b60008060408385031215611636578182fd5b61163f836114b0565b915060208301356001600160401b03811115611659578182fd5b611665858286016114cc565b9150509250929050565b60008060408385031215611681578182fd5b61168a836114b0565b946020939093013593505050565b6000602082840312156116a9578081fd5b81356106e2816119b8565b6000602082840312156116c5578081fd5b81516106e2816119b8565b6000602082840312156116e1578081fd5b81356001600160401b038111156116f6578182fd5b6109f6848285016114cc565b600060208284031215611713578081fd5b5035919050565b600081518084526117328160208601602086016118e0565b601f01601f19169290920160200192915050565b600083516117588184602088016118e0565b83519083019061176c8183602088016118e0565b01949350505050565b6001600160a01b03858116825284166020820152604081018390526080606082018190526000906117a89083018461171a565b9695505050505050565b6020815260006106e2602083018461171a565b60208082526032908201527f4552433732313a207472616e7366657220746f206e6f6e20455243373231526560408201527131b2b4bb32b91034b6b83632b6b2b73a32b960711b606082015260800190565b6020808252818101527f4f776e61626c653a2063616c6c6572206973206e6f7420746865206f776e6572604082015260600190565b60208082526031908201527f4552433732313a207472616e736665722063616c6c6572206973206e6f74206f6040820152701ddb995c881b9bdc88185c1c1c9bdd9959607a1b606082015260800190565b600082198211156118b0576118b0611976565b500190565b6000826118c4576118c461198c565b500490565b6000828210156118db576118db611976565b500390565b60005b838110156118fb5781810151838201526020016118e3565b838111156108815750506000910152565b600181811c9082168061192057607f821691505b6020821081141561194157634e487b7160e01b600052602260045260246000fd5b50919050565b600060001982141561195b5761195b611976565b5060010190565b6000826119715761197161198c565b500690565b634e487b7160e01b600052601160045260246000fd5b634e487b7160e01b600052601260045260246000fd5b634e487b7160e01b600052604160045260246000fd5b6001600160e01b031981168114610ac957600080fdfeddf252ad1be2c89b69c2b068fc378daa952ba7f163c4a11628f55a4df523b3efa2646970667358221220a7cfe2d33c57393986eb374c07cd0bc0af5f35d836befb59ac1cd49ab5dac20264736f6c63430008040033",
  "linkReferences": {},
  "deployedLinkReferences": {}
}